:107E000001C0DEC0112484B7882361F0982F9A70D6
:107E1000923041F081FF02C097EF94BF282E80E09E
:107E2000BAD0EEC085E08093810082E08093C000EC
:107E300088E18093C10086E08093C20089E180934D
:107E4000C4008EE0A8D0259A8CE028E13EEF91E0B6
:107E5000309385002093840096BBB09BFECF1D9A83
:107E6000A8954091C00047FD02C0815089F7EE24DB
:107E7000E39495E0D92E21E1C22E7FD0813461F4C4
:107E80007CD0182F8ED01238E9F0113811F488E028
:107E900001C083E06BD067C0823411F484E103C079
:107EA000853419F485E085D05EC0853539F465D018
:107EB000C82F63D0D82FCC0FDD1F54C0863521F4D6
:107EC00084E077D080E0E6CF843609F02EC055D02C
:107ED00054D0F82E52D0B82E00E011E04ED0F80168
:107EE00081938F01FE12FACF5CD0F5E4BF1201C07E
:107EF000FFCF83E0FE0187BFE89507B600FCFDCF0A
:107F0000A0E0B1E0FE018D919D910C01E7BEE895E6
:107F100011243296FA12F7CFFE01D7BEE89507B6C4
:107F200000FCFDCFC7BEE8951EC0843771F425D094
:107F300024D0F82E22D035D08E01F80185918F0102
:107F400015D0FA94F110F9CF0EC0853739F429D045
:107F50008EE10CD085E90AD08FE09CCF813511F4F9
:107F600088E019D01ED080E101D087CF9091C00069
:107F700095FFFCCF8093C60008951D9A8091C000A4
:107F800087FFFCCF8091C00084FD01C0A89580913F
:107F9000C6001D9A0895E0E6F0E098E190838083A2
:107FA0000895EBDF803219F088E0F5DFFFCF84E140
:107FB000DDCFCF93C82FE1DFC150E9F7CF91F1CFEB
:107FC000FC010A0167BFE895112407B600FCFDCF4C
:107FD000667029F0452B19F481E187BFE895089573
:027FFE00000879
:0400000300007E007B
:00000001FF
